{
    "_format": "hh-sol-artifact-1",
    "contractName": "MemorialWall",
    "sourceName": "contracts/MemorialWall.sol",
    "abi": [
        {
            "inputs": [],
            "stateMutability": "nonpayable",
            "type": "constructor"
        },
        {
            "anonymous": false,
            "inputs": [
                {
                    "indexed": true,
                    "internalType": "address",
                    "name": "author",
                    "type": "address"
                },
                {
                    "indexed": false,
                    "internalType": "string",
                    "name": "message",
                    "type": "string"
                },
                {
                    "indexed": false,
                    "internalType": "string",
                    "name": "name",
                    "type": "string"
                },
                {
                    "indexed": false,
                    "internalType": "string",
                    "name": "imageHash",
                    "type": "string"
                },
                {
                    "indexed": false,
                    "internalType": "uint256",
                    "name": "timestamp",
                    "type": "uint256"
                }
            ],
            "name": "NewMemoryMessage",
            "type": "event"
        },
        {
            "anonymous": false,
            "inputs": [
                {
                    "indexed": false,
                    "internalType": "bool",
                    "name": "success",
                    "type": "bool"
                },
                {
                    "indexed": false,
                    "internalType": "bytes",
                    "name": "data",
                    "type": "bytes"
                }
            ],
            "name": "Response",
            "type": "event"
        },
        {
            "inputs": [
                {
                    "internalType": "string",
                    "name": "_message",
                    "type": "string"
                },
                {
                    "internalType": "string",
                    "name": "_name",
                    "type": "string"
                },
                {
                    "internalType": "string",
                    "name": "_imageHash",
                    "type": "string"
                }
            ],
            "name": "addMemory",
            "outputs": [],
            "stateMutability": "payable",
            "type": "function"
        },
        {
            "inputs": [
                {
                    "internalType": "address payable",
                    "name": "_newOwner",
                    "type": "address"
                }
            ],
            "name": "changeOwner",
            "outputs": [],
            "stateMutability": "nonpayable",
            "type": "function"
        },
        {
            "inputs": [],
            "name": "getDonationPot",
            "outputs": [
                {
                    "internalType": "uint256",
                    "name": "",
                    "type": "uint256"
                }
            ],
            "stateMutability": "view",
            "type": "function"
        },
        {
            "inputs": [],
            "name": "getMemories",
            "outputs": [
                {
                    "components": [
                        {
                            "internalType": "string",
                            "name": "message",
                            "type": "string"
                        },
                        {
                            "internalType": "string",
                            "name": "name",
                            "type": "string"
                        },
                        {
                            "internalType": "string",
                            "name": "imageHash",
                            "type": "string"
                        },
                        {
                            "internalType": "address",
                            "name": "author",
                            "type": "address"
                        },
                        {
                            "internalType": "uint256",
                            "name": "timestamp",
                            "type": "uint256"
                        }
                    ],
                    "internalType": "struct MemorialWall.MemoryMessage[]",
                    "name": "",
                    "type": "tuple[]"
                }
            ],
            "stateMutability": "view",
            "type": "function"
        },
        {
            "inputs": [],
            "name": "getOwner",
            "outputs": [
                {
                    "internalType": "address",
                    "name": "",
                    "type": "address"
                }
            ],
            "stateMutability": "view",
            "type": "function"
        },
        {
            "inputs": [
                {
                    "internalType": "uint256",
                    "name": "",
                    "type": "uint256"
                }
            ],
            "name": "messages",
            "outputs": [
                {
                    "internalType": "string",
                    "name": "message",
                    "type": "string"
                },
                {
                    "internalType": "string",
                    "name": "name",
                    "type": "string"
                },
                {
                    "internalType": "string",
                    "name": "imageHash",
                    "type": "string"
                },
                {
                    "internalType": "address",
                    "name": "author",
                    "type": "address"
                },
                {
                    "internalType": "uint256",
                    "name": "timestamp",
                    "type": "uint256"
                }
            ],
            "stateMutability": "view",
            "type": "function"
        },
        {
            "inputs": [],
            "name": "withdrawDonations",
            "outputs": [],
            "stateMutability": "nonpayable",
            "type": "function"
        }
    ],
    "bytecode": "0x608060405234801561001057600080fd5b5033600160006101000a81548173ffffffffffffffffffffffffffffffffffffffff021916908373ffffffffffffffffffffffffffffffffffffffff160217905550611720806100616000396000f3fe6080604052600436106100705760003560e01c8063a2bb3ea01161004e578063a2bb3ea01461010c578063a6f9dae114610137578063ce1b088a14610160578063e0003ece1461017757610070565b80630d80fefd1461007557806364b0a7b9146100b6578063893d20e8146100e1575b600080fd5b34801561008157600080fd5b5061009c60048036038101906100979190610adb565b610193565b6040516100ad959493929190610be8565b60405180910390f35b3480156100c257600080fd5b506100cb610391565b6040516100d89190610dfe565b60405180910390f35b3480156100ed57600080fd5b506100f6610606565b6040516101039190610e20565b60405180910390f35b34801561011857600080fd5b50610121610630565b60405161012e9190610e3b565b60405180910390f35b34801561014357600080fd5b5061015e60048036038101906101599190610e94565b610638565b005b34801561016c57600080fd5b5061017561070c565b005b610191600480360381019061018c9190610ff6565b6108f8565b005b600081815481106101a357600080fd5b90600052602060002090600502016000915090508060000180546101c6906110cc565b80601f01602080910402602001604051908101604052809291908181526020018280546101f2906110cc565b801561023f5780601f106102145761010080835404028352916020019161023f565b820191906000526020600020905b81548152906001019060200180831161022257829003601f168201915b505050505090806001018054610254906110cc565b80601f0160208091040260200160405190810160405280929190818152602001828054610280906110cc565b80156102cd5780601f106102a2576101008083540402835291602001916102cd565b820191906000526020600020905b8154815290600101906020018083116102b057829003601f168201915b5050505050908060020180546102e2906110cc565b80601f016020809104026020016040519081016040528092919081815260200182805461030e906110cc565b801561035b5780601f106103305761010080835404028352916020019161035b565b820191906000526020600020905b81548152906001019060200180831161033e57829003601f168201915b5050505050908060030160009054906101000a900473ffffffffffffffffffffffffffffffffffffffff16908060040154905085565b60606000805480602002602001604051908101604052809291908181526020016000905b828210156105fd57838290600052602060002090600502016040518060a00160405290816000820180546103e8906110cc565b80601f0160208091040260200160405190810160405280929190818152602001828054610414906110cc565b80156104615780601f1061043657610100808354040283529160200191610461565b820191906000526020600020905b81548152906001019060200180831161044457829003601f168201915b5050505050815260200160018201805461047a906110cc565b80601f01602080910402602001604051908101604052809291908181526020018280546104a6906110cc565b80156104f35780601f106104c8576101008083540402835291602001916104f3565b820191906000526020600020905b8154815290600101906020018083116104d657829003601f168201915b5050505050815260200160028201805461050c906110cc565b80601f0160208091040260200160405190810160405280929190818152602001828054610538906110cc565b80156105855780601f1061055a57610100808354040283529160200191610585565b820191906000526020600020905b81548152906001019060200180831161056857829003601f168201915b505050505081526020016003820160009054906101000a900473ffffffffffffffffffffffffffffffffffffffff1673ffffffffffffffffffffffffffffffffffffffff1673ffffffffffffffffffffffffffffffffffffffff168152602001600482015481525050815260200190600101906103b5565b50505050905090565b6000600160009054906101000a900473ffffffffffffffffffffffffffffffffffffffff16905090565b600047905090565b600160009054906101000a900473ffffffffffffffffffffffffffffffffffffffff1673ffffffffffffffffffffffffffffffffffffffff163373ffffffffffffffffffffffffffffffffffffffff16146106c8576040517f08c379a00000000000000000000000000000000000000000000000000000000081526004016106bf9061116f565b60405180910390fd5b80600160006101000a81548173ffffffffffffffffffffffffffffffffffffffff021916908373ffffffffffffffffffffffffffffffffffffffff16021790555050565b600160009054906101000a900473ffffffffffffffffffffffffffffffffffffffff1673ffffffffffffffffffffffffffffffffffffffff163373ffffffffffffffffffffffffffffffffffffffff161461079c576040517f08c379a000000000000000000000000000000000000000000000000000000000815260040161079390611201565b60405180910390fd5b600080600160009054906101000a900473ffffffffffffffffffffffffffffffffffffffff1673ffffffffffffffffffffffffffffffffffffffff1647600067ffffffffffffffff8111156107f4576107f3610ecb565b5b6040519080825280601f01601f1916602001820160405280156108265781602001600182028036833780820191505090505b506040516108349190611268565b60006040518083038185875af1925050503d8060008114610871576040519150601f19603f3d011682016040523d82523d6000602084013e610876565b606091505b50915091507f13848c3e38f8886f3f5d2ad9dff80d8092c2bbb8efd5b887a99c2c6cfc09ac2a82826040516108ac9291906112e4565b60405180910390a1816108f4576040517f08c379a00000000000000000000000000000000000000000000000000000000081526004016108eb90611360565b60405180910390fd5b5050565b6000341161093b576040517f08c379a0000000000000000000000000000000000000000000000000000000008152600401610932906113f2565b60405180910390fd5b60006040518060a001604052808581526020018481526020018381526020013373ffffffffffffffffffffffffffffffffffffffff16815260200142815250908060018154018082558091505060019003906000526020600020906005020160009091909190915060008201518160000190816109b891906115be565b5060208201518160010190816109ce91906115be565b5060408201518160020190816109e491906115be565b5060608201518160030160006101000a81548173ffffffffffffffffffffffffffffffffffffffff021916908373ffffffffffffffffffffffffffffffffffffffff1602179055506080820151816004015550503373ffffffffffffffffffffffffffffffffffffffff167f8107c029af4f058cbbef546618e5eab8bbf7bb546793ca6df89bb538a4fb484c84848442604051610a849493929190611690565b60405180910390a2505050565b6000604051905090565b600080fd5b600080fd5b6000819050919050565b610ab881610aa5565b8114610ac357600080fd5b50565b600081359050610ad581610aaf565b92915050565b600060208284031215610af157610af0610a9b565b5b6000610aff84828501610ac6565b91505092915050565b600081519050919050565b600082825260208201905092915050565b60005b83811015610b42578082015181840152602081019050610b27565b60008484015250505050565b6000601f19601f8301169050919050565b6000610b6a82610b08565b610b748185610b13565b9350610b84818560208601610b24565b610b8d81610b4e565b840191505092915050565b600073ffffffffffffffffffffffffffffffffffffffff82169050919050565b6000610bc382610b98565b9050919050565b610bd381610bb8565b82525050565b610be281610aa5565b82525050565b600060a0820190508181036000830152610c028188610b5f565b90508181036020830152610c168187610b5f565b90508181036040830152610c2a8186610b5f565b9050610c396060830185610bca565b610c466080830184610bd9565b9695505050505050565b600081519050919050565b600082825260208201905092915050565b6000819050602082019050919050565b600082825260208201905092915050565b6000610c9882610b08565b610ca28185610c7c565b9350610cb2818560208601610b24565b610cbb81610b4e565b840191505092915050565b610ccf81610bb8565b82525050565b610cde81610aa5565b82525050565b600060a0830160008301518482036000860152610d018282610c8d565b91505060208301518482036020860152610d1b8282610c8d565b91505060408301518482036040860152610d358282610c8d565b9150506060830151610d4a6060860182610cc6565b506080830151610d5d6080860182610cd5565b508091505092915050565b6000610d748383610ce4565b905092915050565b6000602082019050919050565b6000610d9482610c50565b610d9e8185610c5b565b935083602082028501610db085610c6c565b8060005b85811015610dec5784840389528151610dcd8582610d68565b9450610dd883610d7c565b925060208a01995050600181019050610db4565b50829750879550505050505092915050565b60006020820190508181036000830152610e188184610d89565b905092915050565b6000602082019050610e356000830184610bca565b92915050565b6000602082019050610e506000830184610bd9565b92915050565b6000610e6182610b98565b9050919050565b610e7181610e56565b8114610e7c57600080fd5b50565b600081359050610e8e81610e68565b92915050565b600060208284031215610eaa57610ea9610a9b565b5b6000610eb884828501610e7f565b91505092915050565b600080fd5b600080fd5b7f4e487b7100000000000000000000000000000000000000000000000000000000600052604160045260246000fd5b610f0382610b4e565b810181811067ffffffffffffffff82111715610f2257610f21610ecb565b5b80604052505050565b6000610f35610a91565b9050610f418282610efa565b919050565b600067ffffffffffffffff821115610f6157610f60610ecb565b5b610f6a82610b4e565b9050602081019050919050565b82818337600083830152505050565b6000610f99610f9484610f46565b610f2b565b905082815260208101848484011115610fb557610fb4610ec6565b5b610fc0848285610f77565b509392505050565b600082601f830112610fdd57610fdc610ec1565b5b8135610fed848260208601610f86565b91505092915050565b60008060006060848603121561100f5761100e610a9b565b5b600084013567ffffffffffffffff81111561102d5761102c610aa0565b5b61103986828701610fc8565b935050602084013567ffffffffffffffff81111561105a57611059610aa0565b5b61106686828701610fc8565b925050604084013567ffffffffffffffff81111561108757611086610aa0565b5b61109386828701610fc8565b9150509250925092565b7f4e487b7100000000000000000000000000000000000000000000000000000000600052602260045260246000fd5b600060028204905060018216806110e457607f821691505b6020821081036110f7576110f661109d565b5b50919050565b7f4f6e6c7920746865206f776e65722063616e206368616e6765206f776e65727360008201527f6869700000000000000000000000000000000000000000000000000000000000602082015250565b6000611159602383610b13565b9150611164826110fd565b604082019050919050565b600060208201905081810360008301526111888161114c565b9050919050565b7f4f6e6c7920746865206f776e65722063616e20776974686472617720646f6e6160008201527f74696f6e73000000000000000000000000000000000000000000000000000000602082015250565b60006111eb602583610b13565b91506111f68261118f565b604082019050919050565b6000602082019050818103600083015261121a816111de565b9050919050565b600081519050919050565b600081905092915050565b600061124282611221565b61124c818561122c565b935061125c818560208601610b24565b80840191505092915050565b60006112748284611237565b915081905092915050565b60008115159050919050565b6112948161127f565b82525050565b600082825260208201905092915050565b60006112b682611221565b6112c0818561129a565b93506112d0818560208601610b24565b6112d981610b4e565b840191505092915050565b60006040820190506112f9600083018561128b565b818103602083015261130b81846112ab565b90509392505050565b7f5472616e73666572206661696c65642e00000000000000000000000000000000600082015250565b600061134a601083610b13565b915061135582611314565b602082019050919050565b600060208201905081810360008301526113798161133d565b9050919050565b7f596f75206d75737420646f6e61746520746f206164642061206d656d6f72792060008201527f746f207468652077616c6c000000000000000000000000000000000000000000602082015250565b60006113dc602b83610b13565b91506113e782611380565b604082019050919050565b6000602082019050818103600083015261140b816113cf565b9050919050565b60008190508160005260206000209050919050565b60006020601f8301049050919050565b600082821b905092915050565b6000600883026114747fffffffffffffffffffffffffffffffffffffffffffffffffffffffffffffffff82611437565b61147e8683611437565b95508019841693508086168417925050509392505050565b6000819050919050565b60006114bb6114b66114b184610aa5565b611496565b610aa5565b9050919050565b6000819050919050565b6114d5836114a0565b6114e96114e1826114c2565b848454611444565b825550505050565b600090565b6114fe6114f1565b6115098184846114cc565b505050565b5b8181101561152d576115226000826114f6565b60018101905061150f565b5050565b601f8211156115725761154381611412565b61154c84611427565b8101602085101561155b578190505b61156f61156785611427565b83018261150e565b50505b505050565b600082821c905092915050565b600061159560001984600802611577565b1980831691505092915050565b60006115ae8383611584565b9150826002028217905092915050565b6115c782610b08565b67ffffffffffffffff8111156115e0576115df610ecb565b5b6115ea82546110cc565b6115f5828285611531565b600060209050601f8311600181146116285760008415611616578287015190505b61162085826115a2565b865550611688565b601f19841661163686611412565b60005b8281101561165e57848901518255600182019150602085019450602081019050611639565b8683101561167b5784890151611677601f891682611584565b8355505b6001600288020188555050505b505050505050565b600060808201905081810360008301526116aa8187610b5f565b905081810360208301526116be8186610b5f565b905081810360408301526116d28185610b5f565b90506116e16060830184610bd9565b9594505050505056fea2646970667358221220277940b028d81f132f58b63619a131fd17d8cbd0a0c31eb067e8483e577c867d64736f6c63430008110033",
    "linkReferences": {},
    "deployedLinkReferences": {}
}